:100000000EC015C015C013C012C011C010C00FC063
:100010000EC00DC00CC00BC00AC009C008C011241E
:100020001FBECFE5D2E0DEBFCDBF11D06FC0E8CF9D
:100030001F920F920FB60F92112428E088E190E0F2
:100040000FB6F894A89581BD0FBE21BDFFCFBA9819
:10005000C298BC98C498A89514BE81B5886181BD2A
:1000600011BCB99AB89AC198C09880E28BBF90E150
:1000700095BB8ABF7894B49B1DC003E010E0B29991
:10008000FECF00000000000008BB000000000000E0
:100090000000000000000000B29918BB0000000042
:1000A000000000000000000000000000B29918BB32
:1000B000E6CF29C002E013E021E030E0B299FECFA4
:1000C00000000000C098C19800000000000000007F
:1000D00000000000B2990CC008BB00000000000046
:1000E00000000000B29918BB0000000008BBE6CF7A
:1000F00000000000000000000000B29928BB0000D2
:10010000000038BBDBCF80E090E00895F894FFCF8B
:00000001FF
